{
  "_format": "hh-sol-artifact-1",
  "contractName": "IpDid",
  "sourceName": "contracts/IpDid.sol",
  "abi": [
    {
      "anonymous": false,
      "inputs": [
        {
          "indexed": false,
          "internalType": "address",
          "name": "sender",
          "type": "address"
        },
        {
          "indexed": false,
          "internalType": "string",
          "name": "did",
          "type": "string"
        },
        {
          "indexed": false,
          "internalType": "string",
          "name": "didDoc",
          "type": "string"
        }
      ],
      "name": "SetDid",
      "type": "event"
    },
    {
      "inputs": [
        {
          "internalType": "string",
          "name": "",
          "type": "string"
        }
      ],
      "name": "dids",
      "outputs": [
        {
          "internalType": "string",
          "name": "",
          "type": "string"
        }
      ],
      "stateMutability": "view",
      "type": "function"
    },
    {
      "inputs": [
        {
          "internalType": "string",
          "name": "did",
          "type": "string"
        },
        {
          "internalType": "string",
          "name": "didDoc",
          "type": "string"
        }
      ],
      "name": "setDid",
      "outputs": [],
      "stateMutability": "nonpayable",
      "type": "function"
    }
  ],
  "bytecode": "0x608060405234801561001057600080fd5b50610669806100206000396000f3fe608060405234801561001057600080fd5b50600436106100365760003560e01c8063454fd2851461003b578063f44ab5161461016a575b600080fd5b6101686004803603604081101561005157600080fd5b81019060208101813564010000000081111561006c57600080fd5b82018360208201111561007e57600080fd5b803590602001918460018302840111640100000000831117156100a057600080fd5b91908080601f01602080910402602001604051908101604052809392919081815260200183838082843760009201919091525092959493602081019350359150506401000000008111156100f357600080fd5b82018360208201111561010557600080fd5b8035906020019184600183028401116401000000008311171561012757600080fd5b91908080601f016020809104026020016040519081016040528093929190818152602001838380828437600092019190915250929550610285945050505050565b005b6102106004803603602081101561018057600080fd5b81019060208101813564010000000081111561019b57600080fd5b8201836020820111156101ad57600080fd5b803590602001918460018302840111640100000000831117156101cf57600080fd5b91908080601f016020809104026020016040519081016040528093929190818152602001838380828437600092019190915250929550610421945050505050565b6040805160208082528351818301528351919283929083019185019080838360005b8381101561024a578181015183820152602001610232565b50505050905090810190601f1680156102775780820380516001836020036101000a031916815260200191505b509250505060405180910390f35b61028e826104c8565b610297816104c8565b806000836040518082805190602001908083835b602083106102ca5780518252601f1990920191602091820191016102ab565b51815160209384036101000a6000190180199092169116179052920194855250604051938490038101909320845161030b9591949190910192509050610592565b507f0ce2344e8479655970239bf81a7cbb781e6cfcacc93ba09f7a0bf66733b1410b33838360405180846001600160a01b031681526020018060200180602001838103835285818151815260200191508051906020019080838360005b83811015610380578181015183820152602001610368565b50505050905090810190601f1680156103ad5780820380516001836020036101000a031916815260200191505b50838103825284518152845160209182019186019080838360005b838110156103e05781810151838201526020016103c8565b50505050905090810190601f16801561040d5780820380516001836020036101000a031916815260200191505b509550505050505060405180910390a15050565b805160208183018101805160008252928201938201939093209190925280546040805160026001841615610100026000190190931692909204601f810185900485028301850190915280825290928301828280156104c05780601f10610495576101008083540402835291602001916104c0565b820191906000526020600020905b8154815290600101906020018083116104a357829003601f168201915b505050505081565b61056e816040516024018080602001828103825283818151815260200191508051906020019080838360005b8381101561050c5781810151838201526020016104f4565b50505050905090810190601f1680156105395780820380516001836020036101000a031916815260200191505b5060408051601f198184030181529190526020810180516001600160e01b031663104c13eb60e21b1790529250610571915050565b50565b80516a636f6e736f6c652e6c6f67602083016000808483855afa5050505050565b828054600181600116156101000203166002900490600052602060002090601f0160209004810192826105c8576000855561060e565b82601f106105e157805160ff191683800117855561060e565b8280016001018555821561060e579182015b8281111561060e5782518255916020019190600101906105f3565b5061061a92915061061e565b5090565b5b8082111561061a576000815560010161061f56fea2646970667358221220b3eac21e762dc4db2b0087613b60d53128a79b07babea8f9b78a390afa57b1be64736f6c63430007060033",
  "linkReferences": {},
  "deployedLinkReferences": {}
}